:100000000C94EA030C9431040C9431040C943104E4
:100010000C9431040C9431040C9431040C9431048C
:100020000C9431040C9431040C9449290C941B2A2F
:100030000C94A3210C9431040C9431040C943104DD
:100040000C9431040C9431040C9431040C9431045C
:100050000C9431040C940B220C9431040C94310454
:100060000C9431040C9431040C9431040C9431043C
:100070000C9431040C9431040C9431040C9431042C
:100080000C9431040C9431040C9431040C9431041C
:100090000C9431040C9431040C9431040C9431040C
:1000A0000C9431040C9431040C9431043C073E0749
:1000B0004907400742074407460748074B074D07D3
:1000C0004F075A07510753075507570759075C074A
:1000D00083178317B517B517F3174119411941193C
:1000E00013184119C018C0183119411941193A198A
:1000F000CD18CD18CD18CD18CD18CD18CD18CD18D8
:10010000CD18CD18CD18CD18CD18CD18CD18CD18C7
:10011000DE18EC18F318FA180419CC19CC19DE19EA
:10012000DE19D519DE19DE19DE19CC19CC19DA1948
:10013000DE19DE19DA19882AAF2AA12BAF2AA12BE2
:10014000FB2A1E2BA12B742B832B07634236B79BF4
:10015000D8A71A39685618AEBAAB558C1D3CB7CC27
:100160005763BD6DEDFD753EF6177231BF0000009F
:10017000803F05A84CCDB2D44EB93836A9020C50F8
:10018000B9918688083CA6AAAA2ABE000000803F32
:1001900064320A165C1E001F00200021002200238A
:1001A0000024002500260027002E00540055002AB8
:1001B000002B0014001A000800150017001C00187E
:1001C000000C00120013005F00600061005700394E
:1001D0000004001600070009000A000B000D000EC5
:1001E000000F0034005C005D005E00280002551D19
:1001F000001B0006001900050011001000367252A5
:1002000000380059005A005B005800E000E300E2AB
:100210000001512C442C002C002C42500051004F66
:1002200000624263002D004C00E75C3A003B003C5A
:10023000003D003E003F00400041004200430044BA
:10024000004500E55CE65C2B00AC00AE00AB0001B5
:1002500000010001000100010001000100C75CC8AD
:100260005CD15C01001A5CAA00AD00A900A80001E5
:100270000001000100010001000100CE5CCF5CD054
:100280005C0100E50001000100B200010001000175
:10029000000100C45CC25CC35C0100E85CE95C0175
:1002A00000E4000100E6000100010001000100037C
:1002B00051CA5CC55CC95C01000100010001002954
:1002C000001E001F00200021002200230024002522
:1002D000002F0030000100460047004C002B0001B9
:1002E0000001000100010001000100010001000106
:1002F0000001004A0052004B0001005300010001C0
:10030000000100010001004A00010001000100336A
:1003100000500001004F002800E50001000100012D
:1003200000010001004D00010037004A0031004D7E
:100330000051004E005800E4000100E60001002CCE
:10034000002C00010001004B004D004E0001000197
:100350000001000100010001000100010001000195
:100360000001000100010001000100010001000185
:100370000001000100010001000100010001000175
:1003800000010001000100A50001000100010001C1
:100390000001000100A600010001000100010001B0
:1003A0000001000100010001000100010001000145
:1003B000000100005C0100010001000100010001DA
:1003C0000001000100010001000100010001000125
:1003D0000001000100010001000100010001000115
:1003E00000010001000100010001002900B6000128
:1003F00000B7003D003E003F000100010001000188
:100400000001000100010001002B014B014A004ED8
:1004100001B90001000100010049000100010001D3
:100420000001000100010001004B004D004E0009D9
:100430000301004A00010001000100010001000168
:100440000001000100E10001000100B20001000113
:10045000004D000100010001000100010001000148
:10046000000100E0000100010001000100010001A5
:100470000001000100010001000100010001000174
:100480000000000000000000002A2B2800000000EF
:100490000000000000000000000000002900000033
:1004A000002C1E3420212224342627252E362D37D9
:1004B00038271E1F202122232425263333362E37AA
:1004C000381F0405060708090A0B0C0D0E0F101142
:1004D00012131415161718191A1B1C1D2F3130234F
:1004E0002D350405060708090A0B0C0D0E0F101117
:1004F00012131415161718191A1B1C1D2F3130351D
:100500004C0000000000000000000000000000009F
:1005100000000000000000000000000000000000DB
:1005200000000101010101010001010101000000C1
:1005300000000000000000000000000100010001B8
:10054000010101010101010101010101010101019B
:10055000010101010101010101010101000000018E
:10056000010000000000000000000000000000008A
:100570000000000000000000000000000101010177
:100580000000047F3F1F643214783C1E1E140A05CD
:100590006801F000B40078005A000000000000017B
:1005A0000101010101010101020202020202020233
:1005B0000203030303030303030404040404040504
:1005C00005050505060606060607070707080808C5
:1005D000080909090A0A0A0A0B0B0B0C0C0C0D0D71
:1005E0000D0E0E0F0F0F1010111111121213131404
:1005F00014151516161717181819191A1A1B1C1C7A
:100600001D1D1E1F1F2020212222232425252627D1
:100610002728292A2B2B2C2D2E2F2F303132333403
:100620003536363738393A3B3C3D3E3F4041424310
:1006300044464748494A4B4C4D4F505152535556EA
:1006400057585A5B5C5E5F606263646667696A6C98
:100650006D6E707173747678797B7C7E8081838413
:1006600086888A8B8D8F91929496989A9B9D9FA154
:10067000A3A5A7A9ABADAFB1B3B5B7B9BBBDBFC15A
:10068000C4C6C8CACCCFD1D3D6D8DADCDFE1E4E621
:10069000E8EBEDF0F2F5F7FAFCFF040330000000A0
:1006A0000A03580044003700350000000C037800AE
:1006B0006900750064006900000004030904090270
:1006C0005400030100A0FA09040000010301010025
:1006D0000921110100012240000705810308000AD9
:1006E0000904010001030000000921110100012299
:1006F00036000705820308000A090402000103000E
:10070000000009211101000122390007058303209F
:1007100000011201100100000008CDCD7575010027
:100720000102030105010906A101050719E029E7F6
:100730001500250195087501810205081901290593
:100740009505750191029501750391010507190041
:1007500029F71500250195F875018102C0050109E9
:1007600080A10185021601002603001A81002A8358
:1007700000751095018100C0050C0901A1018503D8
:10078000160100269C021A01002A9C027510950190
:100790008100C005010906A101050719E029E71537
:1007A00000250195087501810295017508810105F3
:1007B00008190129059505750191029501750391A7
:1007C000010507190029FF150026FF009506750889
:1007D0008100C00011241FBECFEFDAE0DEBFCDBF25
:1007E00004B603FE27C08091920590919305A091D5
:1007F0009405B09195058730904BA740B04BD1F44C
:1008000010929205109293051092940510929505FE
:1008100014BE84B7877F84BF0FB6F894A8958091E3
:100820006000886180936000109260000FBEE0E07D
:10083000F8E3099511E0A0E0B1E0E0E1F5E602C0DF
:1008400005900D92A435B107D9F725E0A4E5B1E0F4
:1008500001C01D92A239B207E1F70E946E260C94E6
:1008600086320C9400000C949B0B0C9472050C9433
:1008700074052A9A0895229A0C9439048F9A08953F
:10088000879A0C943E048C980895849A0C9443049F
:100890008D9A0895859A0C9448040E943B040E9406
:1008A00040040E9445040E944A040C94B305AF9290
:1008B000BF92CF92DF92EF92FF920F931F93CF934D
:1008C000DF93EC015B01042FC0901505D090160555
:1008D000E0901705F09018050E94BA190E94D81DE3
:1008E00086E0080280011124CA15DB0531F0CE0133
:1008F0000E947F19C00FD11FF7CF0E94BA19C09272
:100900001505D0921605E0921705F0921805DF91B3
:10091000CF911F910F91FF90EF90DF90CF90BF90FC
:10092000AF9008950F931F93CF93DF93EB01F801DE
:100930003281A881B981311103C0A817B907A9F084
:1009400086E0280290011124CD01821B930B4817E9
:10095000590759F086E001900D928A95E1F7888158
:100960009981280F391F39832883DF91CF911F91F7
:100970000F910895DC0186E04802A0011124FB01DB
:100980006E2F9F2FEA17FB0729F0E41BF50B7281EE
:100990007111F6CFF9016083918308950F931F932E
:1009A000CF938B0120915604211141C0FB01C281DC
:1009B000C11183C0863EFCE59F0709F180F4853EA6
:1009C0009C4509F079C00E94BA190E94D81D84E59F
:1009D00091E0909355048093540481E01BC0883EBD
:1009E000ECE59E07D1F0893E9C4509F065C0609119
:1009F0000001709101014FEF8EE494E015C00E9458
:100A0000BA190E94D81D8EE494E090935504809307
:100A1000540482E08093560450C0609102017091AA
:100A2000030141E084E591E00E94570446C0873EFF
:100A30003CE5930729F020F18A3E9C45D8F120C07F
:100A4000FB01C281CC23C9F1213061F02230A9F42D
:100A5000609154047091550420E031E04FEF8EE432
:100A600094E009C0609154047091550422E031E093
:100A700041E084E591E00E94BA04109256041AC045
:100A8000213061F02230C1F4409102015091030104
:100A90002FEF64E574E08EE494E009C0409100011A
:100AA0005091010121E064E574E084E591E00E9449
:100AB000920402C0C0E001C0C1E08C2FCF911F9111
:100AC0000F91089561110BC0FC018281882321F0F0
:100AD00085EE0E94D11503C085EE0E94E01680E0ED
:100AE00090E008950C94CE0481FF08C082E10E943A
:100AF000690F4FEF6FEF83E691E013C0609115052A
:100B00007091160580911705909118050E94F81FA5
:100B1000811109C08DE00E94690F4FEF62E38FEFF2
:100B200090E00C947B0E08950E946B0D9093090148
:100B3000809308010E94790D90E0909307018093C3
:100B400006010E947C0D90E09093050180930401C2
:100B500008954091040160910601809108019091EF
:100B600009010C947B0E80910A010E94690F0E947A
:100B70007F0F0C94A905CF92DF92EF92FF92CF9353
:100B80006B017C010E94F81FC82F809157048430AC
:100B900009F443C0C23079F168F4CC23B9F0C13014
:100BA00009F047C085E10E94690F4FEF6FEF86E9BA
:100BB00090E030C0C33039F1C430D9F585E10E94EE
:100BC000690F4FEF6FEF88EC90E024C082E10E9444
:100BD000690F4FEF6FEF83E691E00E947B0E0E945A
:100BE0008B1481FF26C08DE00E94690F4FEF62E3F6
:100BF0008FEF90E00FC085E10E94690F4FEF6FEF1C
:100C000088E191E007C085E00E94690F4FEF6FEF28
:100C100080E190E00E947B0E0CC00E942F0D60933B
:100C20000A0170930B0180930C0190930D010E94B7
:100C30009405C0935704C701B601CF91FF90EF9080
:100C4000DF90CF90089581E00895CF93282F30E072
:100C5000F901EF57FB4FC491F901EF5FFA4F24916F
:100C6000222359F081EE0E94D1158C2F0E94D115BC
:100C70008C2F0E94E01681EE04C08C2F0E94D115AB
:100C80008C2FCF910C94E016FF920F931F93CF936C
:100C9000DF93EC01F62E8881882331F18E010F5FFE
:100CA0001F4F813031F4C9818C2F0E94D1158C2FB8
:100CB0000AC0823029F489810E94D115E80108C058
:100CC000833021F489810E94E016F8CF0E94250626
:100CD00021968F2D8823F9F2EFE9FFE03197F1F7A4
:100CE00000C000008150F6CFDF91CF911F910F918E
:100CF000FF90089560E00C9444060E944820811102
:100D000006C00E945320811102C00E94CA200C9488
:100D10004D040C9433040C94370408950E94BA19BE
:100D20000E948D062FEF84E39CE02150804090408C
:100D3000E1F700C000000C943122FF920F931F9343
:100D4000CF93DF938C01FC01C081D1818091AA04F3
:100D5000811113C08281882349F0CE010E94EB1ECD
:100D6000F82E682FCE010E94901E04C0CE010E9472
:100D7000BF1EF82EBE018F2D04C0CE010E94EB1EB7
:100D8000BE010E943E09EC01B8010E94350488238F
:100D900009F46CC2B801CE010E941814882309F42A
:100DA00065C2CB3CFCE5DF0741F4F8018281882372
:100DB00009F45CC20E943D0D59C2CC3C8CE5D807B9
:100DC00008F013C1C33C9CE5D90761F4F8018281A6
:100DD000882309F44BC20E94BC1F8272F1F00E946A
:100DE000760F44C2C43CECE5DE07D0F0F801828106
:100DF000C73CFCE5DF0709F4CDC008F0DDC0C53C09
:100E0000ECE5DE0709F4CCC008F0D0C0882309F473
:100E10002DC20E94BC1F827211F30E946C0F26C269
:100E2000C531FCE5DF0708F07EC0C2308CE5D8078D
:100E300008F452C0F8018281882309F459C00E9445
:100E40004820811102C00E94CA200E946F2090E0B9
:100E50009093840580938305FE01E350FC45E231C5
:100E6000F10530F4EA5AFF4F809183050C94462F28
:100E700080918305816027C0826025C0846023C083
:100E8000806121C080621FC080641DC080681BC05B
:100E90008460886018C08E7F16C08D7F14C08B7FE1
:100EA00012C08F7E10C08F7D0EC08F7B0CC08F77DD
:100EB0000AC08B7F877F07C087FB222720F991E03C
:100EC000922790FB87F980938305809183050E9488
:100ED00073200E94BA19CAC1C1159CE5D90781F0D7
:100EE000C130DC45A9F081E080935D0480935E040D
:100EF000C801DF91CF911F910F91FF900C942306B1
:100F0000F8018281882309F4B1C10E948E06AEC126
:100F1000F8018281882309F4A9C18091420581608A
:100F200080934205A3C1C631FCE5DF0739F50E9475
:100F3000BC1F282FF801828140911E0150911F0192
:100F4000882379F02A7A91E009F490E0909358048C
:100F5000911102C069E201C065E3CA010E94282123
:100F60000AC080915804811102C069E201C065E3A2
:100F7000CA010E9433210E94891F78C1C23CDC450E
:100F800009F0B1CFF8018281882309F46FC10E9472
:100F900010106CC1882309F469C10E94B50E66C1A6
:100FA000882309F463C10E947E0E60C1882309F47E
:100FB0005DC10E94960E5AC1C93C9CE5D90731F427
:100FC000882309F453C10E94EA0E50C1CA3CDC4593
:100FD00030F4882309F44AC10E94D00E47C1882307
:100FE00009F444C10E94050F41C1C33DFCE5DF0780
:100FF00049F4F8018281882309F438C188E10E940C
:10100000690F34C1C43D8CE5D80708F087C0F801EA
:101010008281CF3CFCE5DF07A1F4882309F426C1D7
:101020000E942F0D663071058105910540F00E94E8
:101030002F0D683071058105910508F4EECE86E02C
:10104000DECFC03D9CE5D90730F5CD3CECE5DE07B1
:1010500029F4882309F40AC181E0D1CFCE3CDC45D4
:1010600030F4882309F402C10E94520DFFC0882386
:1010700009F4FCC00E942F0D6230710581059105B5
:1010800040F00E942F0D653071058105910508F42F
:10109000C4CE82E0B4CFC13D9CE5D907A1F488233A
:1010A00009F4E4C00E942F0D6F3071058105910590
:1010B00040F00E942F0D643171058105910508F4FF
:1010C000ACCE8FE09CCFC23DDC45A0F4882309F470
:1010D000CDC00E942F0D693071058105910540F04A
:1010E0000E942F0D6E3071058105910508F495CE93
:1010F00089E085CF882309F4B9C00E942F0D65319E
:1011000071058105910540F00E942F0D6731710531
:101110008105910508F481CE85E171CFC73DFCE5DD
:10112000DF0739F5F8018281882361F010925E04AF
:101130000E94D52190935C0480935B0480E20E941E
:101140003F1794C080915E0481110FC080915B04B1
:1011500090915C040E94E121883C910530F487E283
:101160000E94D11587E20E94E01680E20E94461795
:101170007DC0C83D8CE5D80708F043C0F8018281E6
:10118000C53DFCE5DF0729F4882309F46FC083E23D
:1011900036CFC63DDC45A0F4882309F467C00E9421
:1011A0002F0D693171058105910540F00E942F0DC9
:1011B000623271058105910508F42FCE89E11FCFB8
:1011C000882351F010925D040E94D52190935A0417
:1011D0008093590482E0B3CF80915D0481110FC0E8
:1011E0008091590490915A040E94E121883C910514
:1011F00030F486E20E94D11586E20E94E01682E079
:10120000B5CFCB3DECE5DE0731F4F80182818823D0
:1012100069F180E009C0CC3DFCE5DF0741F4F8014D
:101220008281882319F182E00E940C271FC0C83DEB
:10123000DC4509F058CEF8018281811177CF809189
:101240005E04811192CF80915B0490915C040E94B6
:10125000E121883C910508F088CF80E20E94461782
:1012600088E20E94D11588E20E94E01680E0DF91BA
:10127000CF911F910F91FF90089508959FE0799F5E
:10128000F00111249BE4899FE00DF11D1124E60F6C
:10129000F11DEE0FFF1FED56FE4F859194910895BD
:1012A000880F991FFC01ED56FE4F8591949108958A
:1012B000CF93DF930E943E090E94FB0AEC01811547
:1012C00020E59207F0F5811530E4930708F018C186
:1012D000883E910500F5803E910508F088C1883A66
:1012E000910570F4853A910508F09AC08130910516
:1012F00009F47DC108F434C1049708F078C130C105
:101300008D3B910508F497C0803C910508F428C1F5
:10131000805C9109E7C08115904258F4C11581E0C5
:10132000D80708F064C1C03FD10508F419C1D065E1
:101330005EC1C11590E3D90708F0D8C0CE019F70F7
:10134000D1C0811525E5920708F043C0811534E529
:10135000930708F0ECC0811542E5940708F5C11524
:1013600081E5D80708F0CFC02C2F237081E090E0F2
:1013700002C0880F991F2A95E2F79C689E0174E0CD
:10138000369527957A95E1F72370922BCF70C69505
:10139000C69530E2C39FE0011124C82BD92B27C189
:1013A000869586959E0123703327C115D34508F095
:1013B000AFC040E2849FC0011124C1E0D0E002C070
:1013C000CC0FDD1F2A95E2F78C2B9D2BEC01DC68FE
:1013D0000EC1811529E5920778F4811538E5930748
:1013E00008F0AAC08115964508F0BAC0CF71DD2774
:1013F000DC2FCC27D062FBC0C1158AE5D80708F4E2
:10140000A0C0CE0190568115904208F0A9C08D2F42
:101410008F710E94780BDD27D0628F71D82BE7C0C7
:10142000853A910509F49FC0863A910509F09EC05E
:10143000C2E8D0E4DCC0883A910509F49AC0893A40
:10144000910509F499C08A3A910509F498C08B3A3C
:10145000910509F497C08C3A910509F496C08B3B2D
:10146000910509F495C08C3B910509F494C08D3A1F
:10147000910509F493C0803B910509F492C08E3A1E
:10148000910509F491C08F3A910509F490C0813B10
:10149000910509F48FC0823B910509F48EC0833B0E
:1014A000910509F48DC0843B910509F48CC0853BFE
:1014B000910509F48BC0863B910509F48AC0873BEE
:1014C000910509F489C0883B910509F488C0893BDE
:1014D000910509F487C08A3B910509F486C0C0E0F4
:1014E000D4E485C00E945009EC0181C0CE01992747
:1014F000D3FF03C0EC01D86C7AC0EC01D06C77C08C
:10150000DF70D06A74C0DC2FCC27C16FD06A6FC087
:1015100040E2849FC0011124C1E0D0E002C0CC0FA2
:10152000DD1F2A95E2F7C82BD92BDA6860C0D82FC7
:10153000CC27C46FD06A5BC0D82FCC27C06FD06ACD
:1015400056C08C2F8F70806E90E0906A24E0D69504
:10155000C7952A95E1F7CF709C013C2BE90147C064
:10156000C0E0D0E044C0C1E8D0E441C0C3E8D0E46A
:101570003EC0C2EED4E43BC0C9EED4E438C0CAEEEB
:10158000D4E435C0C5EBD4E432C0C6EBD4E42FC0FC
:10159000C3EBD4E42CC0C4EBD4E429C0C7EBD4E43F
:1015A00026C0CCECD4E423C0CDECD4E420C0C3E806
:1015B000D5E41DC0CAE8D5E41AC0C2E9D5E417C015
:1015C000C4E9D5E414C0C1E2D6E411C0C3E2D6E454
:1015D0000EC0C4E2D6E40BC0C5E2D6E408C0C6E241
:1015E000D6E405C0C7E2D6E402C0CAE2D6E4CE0122
:1015F000DF91CF9108958238910549F1B0F481339C
:10160000910509F458C048F48932910509F44EC097
:101610008A32910509F454C008958533910509F47F
:1016200040C08933910599F00895833E910529F1D1
:1016300038F4803E910591F0823E9105A1F0089525
:10164000863E9105F9F0873E910531F1089520918C
:10165000830520FD3AC021FD38C00895809183059F
:1016600080FD35C032C08091830582FF32C08091F9
:10167000830584FD30C083EE39C08091830582FDEF
:1016800028C0F5CF8091830583FF27C08091830513
:1016900084FD21C087EE2AC08091830583FD1DC093
:1016A000F5CF8091830585FD1AC01BC0809183050D
:1016B00085FD17C014C08091830586FD14C015C038
:1016C0008091830586FD11C00EC080EE0FC089E3B6
:1016D0000DC082EE0BC080E009C086EE07C089E233
:1016E00005C085E303C08AE201C081E390E008956C
:1016F0009091830592FF0DC0282F2871283019F48E
:10170000877F846006C0282F2471243011F48B7FDA
:10171000886093FF0DC0282F2871283119F4877E27
:10172000846106C0282F2471243111F48B7E8861D6
:1017300094FD877E08950895EAE3F1E041E050E0EA
:1017400025E02E0F9191A92FA295AF70B0E0919650
:101750003C9191979F70BA0102C0660F771F9A95CE
:10176000E2F7CB018095832391968C932E13EACFD9
:10177000ABE2B1E041E050E02FE02A0F8D91E82F7D
:10178000E295EF70F0E031A18F70BA0102C0660FF0
:10179000771F8A95E2F7CB01962F9095932391A31B
:1017A00092A1892B82A32A13E9CFE9E6F4E0AFE501
:1017B000B4E0119211921D921D9274E0E337F70785
:1017C000C1F70C947D062F923F925F926F927F92A9
:1017D0008F929F92AF92BF92CF92DF92EF92FF9241
:1017E0000F931F93CF93DF932AE3C22E21E0D22ED3
:1017F0000FE514E0E801EE24E394F12C66246394F1
:101800005E018880998019821882D6018D916D01C0
:10181000E82FE295EF70F0E021A18F70A70102C0E0
:10182000440F551F8A95E2F7CA01242B21A322A158
:10183000742E7094272122A350EA5A95F1F79BE267
:10184000292E91E0392E20E030E0D1017D911D015B
:10185000472F42954F7050E0DA0190965C90488196
:1018600059817F70D70102C0AA0FBB1F7A95E2F79A
:10187000BD01652141F4B701022E02C0660F771F3A
:101880000A94E2F702C060E070E0462B572B5983C0
:1018900048832F5F3F4F2F303105B9F691A1792250
:1018A00071A292A1892B82A32296F5018081918158
:1018B0008816990641F0609273040E94D521909396
:1018C000750480937404F4E0C936DF0709F098CFFB
:1018D000809173048823B1F0809174049091750411
:1018E0000E94E121069770F0E9E6F4E0D8018D91BD
:1018F0009D918D0181939193B4E009361B07B1F757
:10190000109273040E94890681E0DF91CF911F91AC
:101910000F91FF90EF90DF90CF90BF90AF909F908E
:101920008F907F906F905F903F902F900895E82F59
:10193000F0E0EE0FFF1FE759FB4F80819181089582
:101940000895EF92FF920F931F93CF93DF93E901D6
:10195000662309F44BC0242F30E0EFEFF0E0E61BE4
:10196000F109B901E69F9001E79F300DF69F300D18
:101970001124232F8B01031B11095CE3E52EF12CAD
:10198000B7010E941E2FFB01BC01069FC001079FEB
:10199000900D169F900D1124B7010E941E2FE2306A
:1019A000F105B1F040F4309779F0319711F5832FBC
:1019B000242F461B21C0E430F105A1F068F03597D3
:1019C000C1F4842F861B18C0832F262F230F14C029
:1019D000862F830FE42F03C0E42FE61B842F432FB1
:1019E0002E2F0AC0842F462F430F06C0842F242F8A
:1019F00003C080E020E040E0E42FF0E0E656FA4F3C
:101A00004491E22FF0E0E656FA4F9491E82FF0E08F
:101A1000E656FA4FE49149839883EA83DF91CF91A8
:101A20001F910F91FF90EF90089588E090E00C9443
:101A30000F32AB01BC0188E090E00C942D32E8E657
:101A4000F5E083E08083109269058FEF82838383C2
:101A5000148260817181828193810C94190D60914F
:101A6000680560FF06C066956F7370E080E090E0E7
:101A7000089560E070E0CB01089580916C0590E0DE
:101A800001968430910514F083E090E080936C051A
:101A9000609168057091690580916A0590916B0568
:101AA0000C94190D80916C0590E0019797FF02C08E
:101AB00080E090E08430910514F083E090E0809322
:101AC0006C05609168057091690580916A05909137
:101AD0006B050C94190D80916805881F8827881F55
:101AE00090916905292F220F97FB992790F9822B56
:101AF000089580916A05089580916B0508958091FD
:101B0000680580FF06C066E070E08DE695E00C9405
:101B10008C1380E090E0FC01E359FA4F11821082AF
:101B20001282039682319105B1F7EDCF909168054D
:101B300090FF0FC020E030E0F901E359FA4F8183B4
:101B4000608342832D5F3F4F22313105A9F70C940A
:101B50007F0D0895CF93DF9300D01F92CDB7DEB7EE
:101B60002091680520FF0AC09E012F5F3F4F0E9411
:101B7000A10C4B8169818A810E94960D0F900F9074
:101B80000F90DF91CF9108955F926F927F928F9225
:101B90009F92AF92BF92CF92DF92EF92FF920F93FC
:101BA0001F93CF93DF9300D01F92CDB7DEB78C0188
:101BB000E62EF42E522E8091680580FF89C0982F62
:101BC0009E77923061F49E012F5F3F4FC8010E94C3
:101BD000A10C4B8169818A810E94960D59C0E82F22
:101BE000E695EF739EE39E0F9F73943018F4F09088
:101BF0006B054EC09AE39E0F9F73993068F4881F5F
:101C00008827881F90916905292F220F022F082B02
:101C100097FB112710F93CC087E28E0F8F738A3033
:101C2000B8F5F0E07997E0FD02C021E001C02FEFA8
:101C3000EE7FE057FA4F8591949166E070E00E9444
:101C40001E2F26034001279F900C1124580188E97C
:101C5000A81A8EEFB80A8DE6C82E85E0D82E98E631
:101C6000692E77247394C501B3010E941E2F96013B
:101C70004F2D6E2D0E94A10CA80CB91C83E0C80E3C
:101C8000D11C8FE7C81685E0D80669F70E947F0D42
:101C90008091680500FB87F980936805902F9695E1
:101CA000809169058078892B10FB87F980936905FD
:101CB000E0926A05F0926B05552051F0609168053D
:101CC0007091690580916A0590916B050E94190DCC
:101CD0000F900F900F90DF91CF911F910F91FF9078
:101CE000EF90DF90CF90BF90AF909F908F907F90BC
:101CF0006F905F90089521E00C94C40DE8E6F5E044
:101D00002081221F2227221F30916905432F440F73
:101D1000842F822B37FB992790F90C9668E671E0A7
:101D20000E94322F438162810C947B0E20916805C2
:101D3000221F2227221F30916905432F440F842F31
:101D4000822B37FB992790F98C3091051CF4845A2B
:101D50009E4F01C00C9768E671E00E94322F4091BF
:101D60006B0560916A050C947B0E60916A05862F65
:101D700090E0873E910514F4675E01C06FEF80919B
:101D80006805881F8827881F90916905292F220FD1
:101D900097FB992790F940916B05822B0C947B0E51
:101DA00060916A05862F90E0499714F0695101C04F
:101DB00060E080916805881F8827881F90916905D9
:101DC000292F220F97FB992790F940916B05822BC1
:101DD0000C947B0E40916B05842F90E0843F91051D
:101DE00014F4445F01C04FEF80916805881F882775
:101DF000881F90916905292F220F97FB992790F949
:101E000060916A05822B0C947B0E40916B05842FA8
:101E100090E00C9714F04C5001C040E080916805B0
:101E2000881F8827881F90916905292F220F97FB0B
:101E3000992790F960916A05822B0C947B0E20E023
:101E40000C94C40DCF939091680590FF40C0917899
:101E5000811102C0926007C0853210F0986403C0FF
:101E60008F73880F982B90936805662351F06091CB
:101E700068057091690580916A0590916B050E94D3
:101E8000190DC09168056C2F66956F7370E04BE07B
:101E900050E080E191E00E944C2F892B19F01092C4
:101EA000930403C081E080939304CC1FCC27CC1F04
:101EB00090916905892F880F97FB992790F9409198
:101EC0006B0560916A058C2BCF910C941F0FCF91FD
:101ED000089561E00C94220F8091680586958F73B8
:101EE0008F5F853208F081E00C94690F809168055E
:101EF00086958F73815009F484E20C94690FE8E6AB
:101F0000F5E080818160808386958F730C94690FE2
:101F100060E00C94220F809142058160809342051D
:101F20000E944820811104C00E94CA200E941F0DF7
:101F30000E94150D609368057093690580936A058A
:101F400090936B056E7761F40E941F0D0E94150D32
:101F5000609368057093690580936A0590936B059B
:101F600081E0809393048091680580FF04C086958A
:101F70008F730C94880F0895E8E6F5E08081816006
:101F8000808386958F730C94880F9091680590FFDD
:101F900010C0263070F430E0F901EE0FFF1F2E0F55
:101FA0003F1FF901E359FA4F8183608342830C9408
:101FB0007F0D08951F93CF93DF9300D01F92CDB76D
:101FC000DEB73091680530FF0CC0122F9E012F5FE5
:101FD0003F4F0E94A10C212F4B8169818A810E9471
:101FE000C50F0F900F900F90DF91CF911F91089523
:101FF000E8E6F5E080818E7F808360817181828157
:1020000093810E94190D109293042FEF80E792E0C4
:10201000215080409040E1F700C000000C947F0DFB
:102020008091680580FD0C94F80F0C947F0FE8E612
:10203000F5E080818E7F8083109293042FEF80E7FC
:1020400092E0215080409040E1F700C000000C94E5
:102050007F0D81E080939304089510929304089576
:10206000CF93C82F80919104909192040E94E12116
:10207000EC2FF0E0E457FA4FE491F0E08E179F0761
:1020800008F443C00E94D521909392048093910458
:102090006091900470E080E090E00E941F2D20E0AD
:1020A00030E04FE753E40E94422C2BED3FE049E43F
:1020B00050E40E94482E0E94B52E0E94BC2C2BE4B6
:1020C0003AE34EE25FE30E94D52B20EF3BEF48ED71
:1020D00052E40E94482E0E94EE2C462F8091680503
:1020E000881F8827881F90916905292F220F97FB49
:1020F000992790F960916A05822B0E94AA0D809120
:10210000900490E0019680939004CF910895CF932E
:10211000C82F80918E0490918F040E94E121EC2FB2
:10212000F0E0E757FA4FE491F0E08E179F07E8F0F0
:102130000E94D52190938F0480938E0440916B056B
:1021400060916A0580918C0490918D040E94AA0D83
:1021500080918C0490918D04019668E671E00E9454
:102160001E2F90938D0480938C04CF910895CF926D
:10217000DF92FF920F931F93CF93DF93F82E8091FE
:102180008A0490918B040E94E121EF2DE695F0E006
:10219000E057FE4FE491F0E08E179F07E8F10E94B0
:1021A000D52190938B0480938A040DE615E0C0E05E
:1021B000D0E088E6C82EDD24D394809188049091E5
:1021C00089048C0F9D1FB6010E941E2F980140911B
:1021D0006B0560916A050E94A10CEC960D5F1F4F84
:1021E000C83681E0D80749F70E947F0D2091880406
:1021F00030918904F0FE0AC0C9010196BE010E9417
:102200001E2F909389048093880406C021503109C1
:102210003093890420938804DF91CF911F910F910F
:10222000FF90DF90CF900895AF92BF92CF92DF9250
:10223000EF92FF920F931F93CF93DF93C82F80FFEE
:1022400002C01FEF01C011E08091860490918704C5
:102250000E94E121C695EC2FF0E0EA57FA4FE49195
:10226000F0E08E179F0708F466C00E94D521909376
:102270008704809386042DE6C22E25E0D22E3FE609
:10228000E32E35E0F32EC0E0D0E0F7013197108265
:10229000F6011082F701108294E0A92EB12C00E023
:1022A00080918504800F87FD8A5F082E000C990BB2
:1022B000C817D907E9F480916B058A9DA0018B9D11
:1022C000500D112455954795559547958091680572
:1022D000881F8827881F90916905592F550F97FBF4
:1022E000992790F9960160916A05852B0E94A10CAF
:1022F000010FF1E0AF1AB10899F6219683E0C80EFC
:10230000D11CE3E0EE0EF11CC630D10509F0BDCFC3
:102310000E947F0D80918504113031F4811102C03B
:1023200085E007C0815005C090E00196BE010E9483
:10233000322F80938504DF91CF911F910F91FF90F1
:10234000EF90DF90CF90BF90AF9008950F931F93C1
:10235000CF93DF93C82F80918304909184040E94CF
:10236000E121EC2FF0E0ED57FA4FE491F0E08E1709
:102370009F0708F466C00E94D5219093840480933F
:10238000830480E090E0FC01E359FA4F118210824F
:102390001282039682319105B1F7C0E0D0E006E0E9
:1023A00010E0CE01B8010E94322F40918204042E29
:1023B000000C550BFC01EE0FFF1FC417D5070CF1E5
:1023C00040910F01042E000C550B4C175D07CCF00B
:1023D0008E0F9F1F9C0123593A4F80916805881FDB
:1023E0008827881F90916905592F550F97FB9927CA
:1023F00090F940916B0560916A05852B0E94A10CB4
:1024000007C0E80FF91FE359FA4F118210821282B8
:102410002196C630D10529F60E947F0D80910E01CC
:1024200090918204980F9093820420910F01280FBD
:1024300020930F01121614F495301CF081958093AF
:102440000E01DF91CF911F910F910895EF92FF92AE
:102450000F931F93CF93DF93809180049091810419
:102460000E94E121883E9340D0F10E94D5219093B3
:10247000810480938004C0917E04D0917F042196D2
:10248000C170DD27D0937F04C0937E048DE6E82ED3
:1024900085E0F82E10E008E7812F8695FE01E80F11
:1024A000F11DCF0181709927970140916B056091D3
:1024B0006A05FC010E9FC0010F9F900D11240E9420
:1024C000A10C1F5FF3E0EF0EF11C163029F7DF912E
:1024D000CF911F910F91FF90EF900C947F0DDF91A2
:1024E000CF911F910F91FF90EF900895CF93DF93BD
:1024F00000D01F92CDB7DEB780917C0490917D040F
:102500000E94E121E1E8F5E02591349182179307DB
:10251000C0F180917B0481110CC09E012F5F3F4F61
:102520004FEF6FEF80E090E00E94A10C8A818093D2
:102530007B040E94D52190937D0480937C0480913C
:102540007A04813051F028F0823061F440917B04AC
:102550000AC080917B0440E007C060917B0440E0AA
:1025600080E003C040E080E060E00E94960D809132
:102570007A0490E0019663E070E00E94322F80932D
:102580007A040F900F900F90DF91CF910895CF9321
:10259000DF9380917804909179040E94E121843F37
:1025A000914008F444C00E94D5219093790480930F
:1025B0007804C0E0D0E020917604309177048091D7
:1025C000680590916905C330D1051CF4232B79F07F
:1025D00002C0232B61F4881F8827881F392F330FEF
:1025E00097FB992790F92C2F40916B050AC0881F03
:1025F0008827881F392F330F97FB992790F92C2FA5
:1026000040E060916A05832B0E94DA0F2196C63064
:10261000D10589F60E947F0D809176049091770410
:102620000196817099279093770480937604DF91C7
:10263000CF910895809193048823D9F190916805F2
:10264000892F86958F732EE3280F2F73243018F46B
:1026500082500C9430102AE3280F2F73233018F483
:1026600086500C94871027E3280F2F73263018F418
:1026700089500C94B71021E3280F2F73263018F4DB
:102680008F500C9414112BE2280F2F73233018F461
:1026900085510C94A611892F8E77803311F40C94F8
:1026A0002612863411F40C947612883411F40C94AA
:1026B000C712089521B3342F3095232331B3432B10
:1026C0003FB7F894FC01680F791FE617F70789F008
:1026D000819198E041BB000000C087FF21BB880FBB
:1026E000000000C000C000C021BB00C09A9591F757
:1026F000ECCF3FBF089520B3242B20BB9B01220FBA
:10270000331F620F731F0E945A1387EC90E00197EA
:10271000F1F700C00000089540E40C947B130F9380
:102720001F93CF93DF93CDB7DEB728970FB6F894FA
:10273000DEBF0FBECDBF80911D018F9380911C0124
:102740008F938FE391E09F938F931F9288E08F93F5
:102750008E010F5F1F4F1F930F930E94592FC801C7
:102760000E947A060FB6F894DEBF0FBECDBF289642
:102770000FB6F894DEBF0FBECDBFDF91CF911F9192
:102780000F910895CF93DF93EC010E94D521909390
:10279000980480939704D0939604C0939504DF9196
:1027A000CF910895CF93DF938091950490919604F3
:1027B000892B59F180919704909198040E94E1210E
:1027C000EC0180911C0190911D018C179D0718F45C
:1027D00081EE0E94D115809195040E94D1158091BF
:1027E00095040E94E01680911C0190911D018C17A8
:1027F0009D0718F481EE0E94E01610929804109242
:1028000097041092960410929504DF91CF91089549
:1028100010921B010C94D21380911B01882321F08C
:1028200010921B010C94D21381E080931B01089538
:102830001F93CF93DF93EC01FB011281112309F465
:102840005DC08933910598F48333910508F043C046
:102850008B32910509F43FC028F40497849708F05F
:102860004AC039C08D97059708F045C034C08931FA
:102870009C4539F1CA318CE5D80768F4C731ECE5DD
:10288000DE07A1F0C831DC45B1F580911C019091C3
:102890001D01059710C0CB318CE5D807C1F0A0F021
:1028A000CC31DC4541F50E94081409C080911C011F
:1028B00090911D01059690931D0180931C0110E0DD
:1028C00020C00E948F13FBCF0E940C14F8CF81E030
:1028D00080931B01F4CF0E94D21380911B018823A7
:1028E00081F00E94BC1F8093940481110AC0CE0124
:1028F0000E94C213E4CF0E94D21303C00E94D213DD
:1029000011E0812FDF91CF911F91089590939E0444
:1029100080939D040895E0919D04F0919E0430976A
:1029200021F00190F081E02D099480E00895E0917C
:102930009D04F0919E04309721F00280F381E02DF8
:102940000994089520919B0430919C048217930769
:1029500071F090939C0480939B04E0919D04F0910E
:102960009E04309721F00680F781E02D09940895A8
:102970002091990430919A048217930771F09093F3
:102980009A0480939904E0919D04F0919E043097FD
:1029900021F00084F185E02D0994089508950C94A8
:1029A000CE1481E008950E94CC2185B7806885BF50
:1029B00085B7806885BF0E949C0B0E94A1220C9461
:1029C0008B0F4F925F927F928F929F92AF92BF92A6
:1029D000CF92DF92EF92FF920F931F93CF93DF93EB
:1029E000CDB7DEB72A970FB6F894DEBF0FBECDBFC6
:1029F0000E94E30B0E94D114811111C08FEF8983D3
:102A00008A831B820E94D5218160782F9D838C83CD
:102A100049815A816B818D810E949D1557C090EA32
:102A2000C92E94E0D92E00E010E0AA24A394B12C82
:102A3000702E802F0E94970C4C01F601419051900E
:102A40006F01482659264114510431F40F5F1F4F7E
:102A50000530110569F7D2CF8091420581FD0E94B2
:102A6000A00C20E030E07501022E02C0EE0CFF1C2D
:102A70000A94E2F7C70184219521892B09F12E835D
:102A80007F828E209F2091E0892809F490E098872A
:102A90000E94D5218160782F9A8789874E815F8136
:102AA00068858A850E949D15000F111FF801E05668
:102AB000FB4F80819181E826F926F182E08206C0F1
:102AC0002F5F3F4F2F30310571F6C0CF10919F041B
:102AD0000E948B141817D9F00E948B1480939F04C6
:102AE0002A960FB6F894DEBF0FBECDBFDF91CF910F
:102AF0001F910F91FF90EF90DF90CF90BF90AF901C
:102B00009F908F907F905F904F900C948B062A96A9
:102B10000FB6F894DEBF0FBECDBFDF91CF911F91EE
:102B20000F91FF90EF90DF90CF90BF90AF909F906C
:102B30008F907F905F904F900895CF93DF93CDB7A4
:102B4000DEB72B970FB6F894DEBF0FBECDBF4F8315
:102B5000588769877A878B87DE01119686E0FD01A9
:102B600011928A95E9F785E0FE01379601900D9262
:102B70008A95E1F749815A816B817C818D819E81A3
:102B80000E94611C2B960FB6F894DEBF0FBECDBF1E
:102B9000DF91CF910895FC01808191810E942A1FCD
:102BA0000895CF93DF931F92CDB7DEB7882309F442
:102BB00003C1682F8238C1F40E948B1481FDFCC0D0
:102BC00069E380911E0190911F010E9428210E94BB
:102BD000891F2FEF81EE94E0215080409040E1F773
:102BE00000C0000069E319C0833811F50E948B14FE
:102BF00080FDE2C063E580911E0190911F010E945B
:102C000028210E94891F2FEF81EE94E021508040FF
:102C10009040E1F700C0000063E580911E019091B3
:102C20001F010E9433210F90DF91CF910C94891FD7
:102C30008438C1F40E948B1482FDBEC067E4809189
:102C40001E0190911F010E9428210E94891F2FEFD1
:102C500081EE94E0215080409040E1F700C00000F8
:102C600067E4DBCF8CEF860F813A70F4862F69839F
:102C70000E948E24698181119FC080911E019091D4
:102C80001F010E942821CFCF80E2860F883048F4B0
:102C9000677081E001C0880F6A95EAF70E94BF1F44
:102CA000C2CF8BE5860F833088F4653A29F0663A07
:102CB00031F083E890E005C081E890E002C082E84E
:102CC00090E00F90DF91CF910C94A21488E5860FCD
:102CD000853108F071C0683A61F1693A69F16A3A80
:102CE00071F16B3A79F16C3A81F16B3B89F16C3B94
:102CF00091F16D3A99F1603BA1F16E3AA9F16F3A09
:102D0000B1F1613BB9F1623BC1F1633BC9F1643B95
:102D1000D1F1653BD9F1663BE1F1673BE9F1683BF5
:102D2000F1F1693BF9F16A3B09F43FC080E090E0C2
:102D30003EC082EE90E03BC089EE90E038C08AEE63
:102D400090E035C085EB90E032C086EB90E02FC07C
:102D500083EB90E02CC084EB90E029C087EB90E0FF
:102D600026C08CEC90E023C08DEC90E020C083E87E
:102D700091E01DC08AE891E01AC082E991E017C095
:102D800084E991E014C081E292E011C083E292E014
:102D90000EC084E292E00BC085E292E008C086E2B9
:102DA00092E005C087E292E002C08AE292E00F90D2
:102DB000DF91CF910C94B8140F90DF91CF910895CB
:102DC000882309F45BC0682F823879F40E948B1441
:102DD00081FF54C069E380911E0190911F010E9400
:102DE00028210E94891F69E310C08338B1F40E9432
:102DF0008B1480FF43C063E580911E0190911F01F9
:102E00000E9428210E94891F63E580911E019091F4
:102E10001F010E9433210C94891F843879F40E9489
:102E20008B1482FF2BC067E480911E0190911F01DB
:102E30000E9428210E94891F67E4E7CF8CEF860F4C
:102E4000813A18F380E2860F883048F4677081E099
:102E500001C0880F6A95EAF70E94C51FDCCF8BE599
:102E6000860F833020F480E090E00C94A214685A1E
:102E7000653120F480E090E00C94B8140895882324
:102E800021F00E94BF1F0C94891F0895882321F010
:102E90000E94C51F0C94891F08954F925F926F92F4
:102EA0007F92BF92CF92DF92EF92FF920F931F9388
:102EB000CF93DF937C01D62FC72FFC0105810295AC
:102EC0000F70128111110E94DC1F0E94821F882343
:102ED00079F0112369F080E28D0F883048F082E0AC
:102EE0000E946B1F0E94821F91E0B82EB92601C07C
:102EF000B12CCC2EC2948FE0C822D12CF601E85917
:102F0000FF4F0C94462F8C2F807FCF70882311F0B9
:102F1000C295C07F112399F0CC2309F48DC180E2C2
:102F20008D0F883010F0D11104C08C2F0E94BF1F6C
:102F300003C08C2F0E94CF1F0E94891F7DC18D2F3F
:102F40000E94E016CC2309F49CC180E28D0F8830EA
:102F500010F0D11104C08C2F0E94C51F03C08C2F0C
:102F60000E94D51F0E94891F8CC18C2F807FCF703B
:102F7000803211F0C295C07FDD2319F0D130C9F045
:102F800022C0112371F0002341F0013031F40E947E
:102F9000F51F8C2B0E94EF1F74C10E94F51F8C2B14
:102FA00004C1002319F0013009F46BC10E94F21F23
:102FB00018C0112321F0063008F063C10EC005309F
:102FC00008F05FC10EC0112351F0002331F0F7016A
:102FD000858180FF31C18F7085838C2FE6C0011100
:102FE0003CC18C2FE8C08C2F86958695837090E02D
:102FF000009719F0019761F044C1112321F08D2F42
:103000009C2F937002C080E090E00E94A21449C1FE
:10301000112321F08D2F9C2F937002C080E090E04F
:103020000E94B8143EC18C2F837009F050C011115A
:1030300034C18D2F829586958770880F880F9D2FBC
:103040009F70492E512C612C712C082E04C0440C09
:10305000551C661C771C0A94D2F7D4FF14C00FE0ED
:1030600010E020E030E0B901A80104C0440F551F72
:10307000661F771F8A95D2F7CB01BA0160957095CC
:103080008095909503C060E070E0CB01C695C69531
:10309000C370D0E0C230D10561F0C330D10581F0FA
:1030A0006429752986299729219771F00E94A61D08
:1030B000F4C064297529862997290E94B81DEDC09E
:1030C0000E94A61DC301B2010E94941DE6C01123F7
:1030D00019F08C2F817001C08695882309F4DDC01A
:1030E0008D2F829586958770880F880F9D2F9F70F2
:1030F000492E512C612C712C082E04C0440C551CF7
:10310000661C771C0A94D2F7D4FF14C00FE010E0BD
:1031100020E030E0B901A80104C0440F551F661F2C
:10312000771F8A95D2F7CB01BA016095709580958B
:10313000909503C060E070E0CB01C695C695C37062
:103140004C2F50E04230510569F04330510589F071
:1031500064297529862997294130510571F00E940B
:103160006B1E9BC064297529862997290E947D1EA4
:1031700094C00E946B1EC301B2010E94591E8DC0F3
:103180008D2F90E0FC01E05EF109E531F10508F0DA
:103190004FC0E858FF4F0C94462FDF708C2F8F7173
:1031A000112331F00E94F21D8D2F0E943F1769C03C
:1031B0000E94131E8D2F0E94461763C0112341F0F9
:1031C000053008F05EC08C2F8F710E94381E59C0E8
:1031D000063008F056C0F7CF112339F08C2F8F71CD
:1031E0000E94F21D4EC01123C9F38C2F8F710E94D3
:1031F000131E47C0112329F08C2F8F710E94DD1DF3
:1032000040C00E94D81D3DC0112349F0CF718C2FC2
:103210000E94F21D63E08C2F0E94621F32C081E089
:103220000E946B1F023068F182E00E946B1F29C070
:10323000112331F0002391F28D2F0E94D11521C06E
:10324000002399F2D93349F45FEF67EE73E05150F0
:1032500060407040E1F700C000008D2F0E94E01632
:1032600010C04C2F4F706D2FC7010E9462050E9445
:10327000051D17C04C2F4F706D2FC7010E943D09CF
:1032800010C088E0C816D10441F05CF0EAE0CE1A24
:10329000D108F2E0CF16D10420F40E948B140E94D2
:1032A0008B06BB20F1F00E945E1F80FD1AC0F70163
:1032B00012820E94581F0E94F21DC7010E947F19AE
:1032C0000E94581FDF91CF911F910F91FF90EF90B7
:1032D000DF90CF90BF907F906F905F904F900C9455
:1032E000131EDF91CF911F910F91FF90EF90DF9010
:1032F000CF90BF907F906F905F904F9008950F9305
:103300001F93CF93DF93EC01888199812B813C81BE
:10331000232BB9F09F3F11F48F3F99F0CE010E940B
:103320009D06882371F0688179818A810E94351F0A
:103330008C010E948F1E0E94911DB801CE010E9437
:103340004D17DF91CF911F910F9108950E94DC1FBF
:103350000E94EC1F80911E0190911F010E943E214E
:103360000E94891F80E090E00E94A21480E090E01B
:103370000C94B8140E94CC1F0C94A6190E942A1F0A
:10338000E92FE295EF70F0E03297EE30F105B0F4FE
:10339000E357FF4F0C94462F803F91F018F4803E86
:1033A00068F40EC0843F51F40BC0803E48F0813F6A
:1033B00029F406C093FB882780F9089580E00895DA
:1033C00081E00895CF93DF9300D000D01F92CDB756
:1033D000DEB70F900F900F900F900F90DF91CF916D
:1033E0000895CF93DF9300D000D000D0CDB7DEB7E3
:1033F00026960FB6F894DEBF0FBECDBFDF91CF91FA
:1034000008951F93CF93DF93C091AB0416E0809192
:10341000AC04C81799F0D0E01C9FF0011D9FF00D7F
:103420001124E355FB4F4081518162817381848176
:1034300095810E94F1192196C770E9CFDF91CF9154
:103440001F9108954091DD045091DE046091DF04E6
:103450007091E0048091E1049091E2040C94F119E0
:103460008091E20482958F7009F054C08091DF044E
:10347000882309F44FC08091AB04A091AC04609103
:10348000DD047091DE044091E0045091E104B6E067
:103490008A1709F43FC090E041155105C1F17F3F03
:1034A00011F46F3FA1F1B89FF001B99FF00D112405
:1034B000E355FB4F218172132AC02081621327C07C
:1034C0002281211124C0238134812417350710F46F
:1034D00021503109241B350B283C3105C0F42091C3
:1034E000E2042F7020612093E20426E0289FF0017F
:1034F000299FF00D1124EE54FB4F80818F70806165
:1035000080838DED94E00E947F190C94011A01963E
:103510008770BECF0895CF92DF92EF92FF920F9304
:103520001F93CF93DF93CDB7DEB762970FB6F894B2
:10353000DEBF0FBECDBF8C0185E0F801DE011D9618
:1035400001900D928A95E1F7D8014C9111965C910A
:10355000119712966C9112971396CD90DC90149758
:103560003091DD047091DE048091E0049091E104DB
:10357000009709F46BC17F3F19F43F3F09F466C11E
:10358000E090DF04EE2009F4C0C02091E204C816E8
:10359000D90628F0F601E81BF90BCF0104C080958D
:1035A00090958C0D9D1DFF24F394883C910578F037
:1035B000F12C207F09F0C6C07C2DD98AC88A898960
:1035C0000E94E2198DED94E00E947F19B1C0822F14
:1035D000807F09F046C0751314C0341312C0611106
:1035E00010C02F7020612093E2040E94221A8DEDFA
:1035F00094E00E947F198091E204D80115968C9383
:103600002EC0CD2819F15F3F11F44F3FF9F0F62E8F
:1036100061111CC08091AB042091AC0436E082178C
:1036200009F45AC090E0389FF001399FF00D112441
:10363000E355FB4F7181571306C07081471303C0D8
:103640007281711103C001968770E9CFF62E66234F
:1036500009F427C18091E20481608093E204F12C97
:1036600020C1751308C0341306C0611104C08091D5
:10367000E204D801C3C04D875E878D859E856A8B25
:103680000E94BE196A898823E1F16623D1F1209155
:10369000E204822F82958F7090E0029774F08091FF
:1036A000DD049091DE0498878F831986DB86CA86B5
:1036B0002C87CE0107960E947F1986E0F801ADEDB8
:1036C000B4E001900D928A95E1F70E94301A0E94B1
:1036D000221AFF24F394E5C04D875E878D859E8571
:1036E0000E942A1F292F22952F7030E022303105A9
:1036F0000CF0CBC09F7009F0C5C0805E883008F424
:10370000D0C0C8010E947F19E4CFC816D90608F4BA
:1037100053C0F601E81BF90BCF01883C910508F472
:1037200050C0F12C7C2DD98AC88A89890E94E2195F
:10373000EDEDF4E086E0DF011D928A95E9F70E9445
:10374000221AAFC0751314C0341312C0611110C017
:103750008091E204F8018583C8010E947F1986E008
:10376000EDEDF4E0DF011D928A95E9F7FE2C99C09A
:103770004D875E878D859E856A8B0E94BE196A89FA
:10378000882309F4BECF662309F4BBCF2091E2045D
:10379000822F82958F7090E002970CF48ECF8091EB
:1037A000DD049091DE049A8389831B82DD82CC82C2
:1037B0002E83CE0101967FCF809590958C0D9D1D17
:1037C000ACCFF62E662309F49CCF75132EC03413AC
:1037D0002CC02091E20420FD1FC0822F82958F70A3
:1037E000D9F0D80115962C9315978F3049F08F5F3B
:1037F000982F9295907F822F8F70892B15968C939E
:10380000C8010E947F1986E0F801ADEDB4E0019097
:103810000D928A95E1F793CF86E0F801ADEDB4E023
:1038200001900D928A95E1F73CC04D875E878D85AA
:103830009E850E94BE19811140CF8091E204816073
:103840008093E204C8010E947F192BC0662309F40B
:1038500058CF4D875E878D859E850E94BE19F82EB4
:10386000882309F44ECF86E0F801ADEDB4E0019075
:103870000D928A95E1F78DED94E00E94CB150E94A0
:10388000301A5DCF811139CF0CC0243031050CF0D6
:1038900038CF9F7009F431CFF8019581907F09F0FE
:1038A0002CCF8F2D62960FB6F894DEBF0FBECDBF22
:1038B000DF91CF911F910F91FF90EF90DF90CF900C
:1038C00008951F93CF93DF93CDB7DEB72C970FB634
:1038D000F894DEBF0FBECDBF4F83588769877A87C4
:1038E0008B879C87CE0107960E948B1A882369F0EC
:1038F0008F8198852A853B85232BF1F19F3F09F025
:1039000063C08F3F09F060C037C086E0FE01379684
:10391000DE01119601900D928A95E1F76F8178850D
:10392000EA85FB85309741F17F3F11F46F3F21F12C
:103930002091AC0430E0C90101968770992740912D
:10394000AB0450E08417950709F447C069837A8374
:10395000FD83EC8396E0929FD001939FB00D1124DC
:10396000A355BB4FFE01319601900D929A95E1F758
:103970008093AC040E94011A16E08091AB049091F0
:10398000AC048917C1F1189FC001112483559B4FC6
:103990000E948B1A882379F1E091AB041E9FF001FD
:1039A0001124E355FB4F40815181628173818481F1
:1039B00095810E94F1198091AB0490E00196877087
:1039C00099278093AB04D9CF4F81588569857A8533
:1039D0008B859C850E94F119CFCF0E94BA19109255
:1039E000AC041092AB04EDEDF4E086E0DF011D9233
:1039F0008A95E9F7C1CF2C960FB6F894DEBF0FBEBB
:103A0000CDBFDF91CF911F910895EF92FF920F9359
:103A10001F93CF93DF938C01892B09F46CC0F12C99
:103A2000EE24E394E8012196F8018491843740F470
:103A3000843008F051C0813081F0823019F15BC0D0
:103A4000853709F444C0A8F19CE7980F903708F037
:103A500052C08F770E94E01641C00E5F1F4FFE01DB
:103A6000C49180E28C0F883048F4C7708E2D01C05D
:103A7000880FCA95EAF70E94DF1F14C08C2F0E949E
:103A8000D1152DC00E5F1F4FFE01C49180E28C0F37
:103A9000883058F4C7708E2D01C0880FCA95EAF798
:103AA0000E94E51F0E94891F1AC08C2F0E94E016F9
:103AB00016C00E5F1F4FFE01C491CC2381F08FE929
:103AC0009FE00197F1F700C00000C150F6CF0E5FF4
:103AD0001F4FFE01F49003C00E94D1158E018F2D5F
:103AE000882309F49FCFEFE9FFE03197F1F700C099
:103AF00000008150F5CFDF91CF911F910F91FF9082
:103B0000EF90089508950C94821D0E94831D609388
:103B1000190570931A0580931B0590931C050C944E
:103B2000A61908950C94851D0F931F9300911905F4
:103B300010911A0520911B0530911C05602B712BEB
:103B4000822B932B1F910F910C94851D0F931F9324
:103B50000091190510911A0520911B0530911C0543
:103B600060237123822393231F910F910C94851D51
:103B70000F931F930091190510911A0520911B05B1
:103B800030911C0560277127822793271F910F9181
:103B90000C94851D0C94BB050E94CA1D60931505ED
:103BA0007093160580931705909318050C94A61929
:103BB00060E070E0CB010C94CC1D0F931F9341E0AB
:103BC00050E060E070E08A019B0104C0000F111F0B
:103BD000221F331F8A95D2F7C901B8011F910F9197
:103BE0000C94CC1D0F931F9341E050E060E070E017
:103BF00004C0440F551F661F771F8A95D2F7809126
:103C0000150590911605A0911705B09118058A0128
:103C10009B01082B192B2A2B3B2BC901B8011F91A3
:103C20000F910C94CC1D0F931F9341E050E060E086
:103C300070E004C0440F551F661F771F8A95D2F7A6
:103C40004095509560957095809115059091160559
:103C5000A0911705B09118058A019B01082319232B
:103C60002A233B23C901B8011F910F910C94CC1D4D
:103C70000F931F9341E050E060E070E004C0440FF8
:103C8000551F661F771F8A95D2F780911505909171
:103C90001605A0911705B09118058A019B01082708
:103CA00019272A273B27C901B8011F910F910C94AE
:103CB000CC1D0F931F9300911505109116052091AF
:103CC000170530911805602B712B822B932B1F91B8
:103CD0000F910C94CC1D0F931F930091150510911B
:103CE0001605209117053091180560237123822352
:103CF00093231F910F910C94CC1D0F931F93009150
:103D000015051091160520911705309118056027AB
:103D10007127822793271F910F910C94CC1D089532
:103D20002FE0929F800D1124A82FA695A695A69509
:103D3000877051E001C0550F8A95EAF785E0A89F8A
:103D4000D001112420E030E070E0F901EA0FFB1F00
:103D5000ED51FB4F4081CB01022E02C09695879515
:103D60000A94E2F781709927819584278523842717
:103D700080832F5F3F4F2530310539F708952FE0BD
:103D8000929F800D1124682F669566956695982FF1
:103D9000977085E0689FB001112440E050E080E01A
:103DA000FA01E60FF71FED51FB4F208130E0092E9D
:103DB00002C0369527950A94E2F721703327042E26
:103DC00001C0220F0A94EAF7822B4F5F5F4F453004
:103DD000510531F70895CF92DF92EF92FF920F9342
:103DE0001F93CF93DF938C01C0901905D0901A05D3
:103DF000E0901B05F0901C0580911505909116052B
:103E0000A0911705B0911805C82AD92AEA2AFB2AD9
:103E1000CFE1D0E0D701C6010C2E04C0B695A7951E
:103E2000979587950A94D2F780FF06C0B8018C2F2A
:103E30000E945809019721F4219760F780E001C0A2
:103E40008C2FDF91CF911F910F91FF90EF90DF901A
:103E5000CF900895CF93DF93EC010E94EB1EBE013B
:103E60000E945809DF91CF9108951F93CF93DF935C
:103E7000EB019091AA04992321F0CB010E942A1F03
:103E800013C0882349F0CB010E94EB1E182F682F26
:103E9000CE010E94901E04C0CB010E94BF1E182FAD
:103EA000BE01812F0E945809DF91CF911F91089583
:103EB00080911D05859585958595089580911D05B1
:103EC0008770089598E0899F90011124262B2093F4
:103ED0001D050C94F21D20911D0580958223809371
:103EE0001D05982F977069F430E0482F082E000CBC
:103EF000550B2417350729F08595859585950C94E4
:103F0000131E089590911D05977081E009F480E0DB
:103F10000895E0911E01F0911F0180914105808379
:103F2000E0911E01F0911F01908180914005892B45
:103F30008083E0911E01F0911F01908180913F05E7
:103F4000892B808380911E05882381F0E0911E01DA
:103F5000F0911F019081892B808380911E019091A7
:103F60001F010E94CC20811110921E0580911E011C
:103F700090911F010C9497148091410508959091A0
:103F80004105892B809341050895809590914105C5
:103F900089238093410508951092410508959091D9
:103FA0004005892B809340050895809590914005A8
:103FB00089238093400508951092400508959091BB
:103FC0003F05892B80933F050895809590913F058B
:103FD000892380933F05089510923F0508958093AB
:103FE0001E05089510921E05089580911E050895DE
:103FF000CF92DF92EF92FF926C01EE24FF24C11466
:10400000D104E104F10421F0C701B60120E101C0AF
:1040100020E0C72ED82EE92EFF24C114D104E104DC
:10402000F10419F0285FC701B6016B017C0154E06F
:10403000F694E794D794C7945A95D1F7C114D10454
:10404000E104F10419F02C5FC701B6016B017C019A
:1040500042E0F694E794D794C7944A95D1F7C114F7
:10406000D104E104F10419F02E5FC701B601DC01AF
:10407000CB01B695A79597958795892B8A2B8B2B86
:1040800009F02F5F822FFF90EF90DF90CF9008957F
:1040900080E090E00E94153221E08D3E9E4F09F0B5
:1040A00020E0822F089580E090E00E94153221E008
:1040B000019609F020E0822F089582E090E00C94B0
:1040C0000732682F82E090E00C941B3283E090E08E
:1040D0000C940732682F83E090E00C941B3284E04C
:1040E00090E00C940732682F84E090E00C941B322F
:1040F000AB01BC018FE090E00C942D32AB01BC0110
:1041000083E190E00C942D3260E070E0CB010C94E0
:104110007E2060E070E0CB010E9478200C94842027
:104120006DEE7EEF80E090E00E94393260E082E048
:1041300090E00E941B3260E083E090E00E941B321E
:104140001092190510921A0510921B0510921C0569
:1041500060E084E090E00E941B3260E085E090E047
:104160000E941B3260E086E090E00E941B326FEFFD
:1041700087E090E00E941B3240E050E0BA0188E006
:1041800090E00E942D3260E08DE090E00E941B32B2
:104190000C9489200C949020FC0131969C01205EA7
:1041A0003F4F80E0919191118F5FE217F307D1F7B4
:1041B00008959C01FC0132969FEF80E041914617E3
:1041C00089F09F3F19F4411101C0982F8F5F8E3104
:1041D000A9F79F3F39F0F901E90FF11D97FDFA9515
:1041E000628308950895FC013296809620812613FB
:1041F00001C010823196E817F907C1F70895262FFC
:104200002695269526952F3168F4FC01E20FF11DC5
:10421000677021E030E001C0220F6A95EAF78181E2
:10422000282B21830895262F2695269526952F3114
:1042300070F4FC01E20FF11D677021E030E001C075
:10424000220F6A95EAF7209581812823218308951A
:1042500020912A01222329F02091830527FD0C9427
:10426000FF200C94D92020912A01222329F02091AB
:10427000830527FD0C9413210C94F320FC01319647
:1042800080961192E817F907E1F7089508950C94C4
:1042900046210E94472180918905843069F110925E
:1042A000430520E488E190E00FB6F894A895809348
:1042B00060000FBE2093600080E00E948B060E9489
:1042C0002D100E9417100E94472183B7817F8460C0
:1042D00083BF83B7816083BF7894889583B78E7FCF
:1042E00083BF0FB6F894A895809160008861809391
:1042F0006000109260000FBE089508950895CF9356
:104300000E947D210E94E30B0E947E21C0E08C2F41
:104310000E94970C892B29F4CF5FC530C1F780E04C
:1043200001C081E0CF91089508950C9494210E94DA
:10433000BA190E948B140E948B060E94BC0F0E9427
:1043400029100C9495211F920F920FB60F921124F1
:104350008F939F93AF93BF9380914305811113C0B7
:1043600080917F0590918005A0918105B091820593
:104370004196A11DB11D80937F0590938005A09368
:104380008105B0938205BF91AF919F918F910F905E
:104390000FBE0F901F90189582E084BD93E095BDED
:1043A0009AEF97BD80936E0008952FB7F89480918F
:1043B0007F0590918005A0918105B09182052FBF66
:1043C0000895CF92DF92EF92FF920F931F932FB732
:1043D000F89440917F05509180056091810570911E
:1043E00082052FBF6A017B01EE24FF248C0120E0AF
:1043F00030E0C016D106E206F30610F44150510930
:104400009A01281B390BC9011F910F91FF90EF9062
:10441000DF90CF90089578941F920F920FB60F926D
:1044200011248F939F93AF93BF9380917F059091B9
:104430008005A0918105B09182050196A11DB11D55
:1044400080937F0590938005A0938105B0938205AA
:10445000BF91AF919F918F910F900FBE0F901F90C2
:10446000189581E08093E00080E28093D80010925C
:10447000C9008FE19EE40197F1F700C0000087E0DA
:1044800090EBDC018093920590939305A0939405A3
:10449000B09395059CE088E10FB6F894A8958093B9
:1044A00060000FBE90936000FFCFAF92BF92CF929B
:1044B000DF92EF92FF920F931F93CF93C0E0CC2433
:1044C000C394D12CE82EF12C8C2F0E94970C5C0108
:1044D00000E010E09601002E02C0220F331F0A9464
:1044E000E2F72A213B21232B31F40F5F1F4F0F30BE
:1044F000110581F70AC0602F7C2F80E00E943E09E1
:10450000E816F90691F781E004C0CF5FC530E1F607
:1045100080E0CF911F910F91FF90EF90DF90CF90AF
:10452000BF90AF900895CF93C82F8CE20E94552280
:10453000882321F08C2FCF910C94552280E0CF91CD
:104540000895CF930E944820811102C00E94CA2082
:10455000C5E6C15049F00E94E30B8FE39CE9019747
:10456000F1F700C00000F5CF89E20E94932281118B
:104570000FC18AE20E94932281110E94CA2085E025
:104580000E94932281110E9431220E945D2080931B
:10459000420587E00E9493228823A9F18BE10E94C3
:1045A0009322882351F08091420581FB222720F934
:1045B00091E0922790FB81F90EC08EE00E94932239
:1045C000882361F08091420582FB222720F991E047
:1045D000922790FB82F98093420515C080E10E94EA
:1045E000932290914205882341F093FB222720F9E2
:1045F00081E0822780FB93F904C0892F809580FB9E
:1046000090F990934205809142050E9461200E949A
:104610006F2090E0909384058093830580EE0E9444
:104620009322882341F080918305982F909590FBE9
:1046300080F98093830589E30E949322882359F0AF
:104640008091830581FB222720F991E0922790FB3E
:1046500081F98093830582EE0E949322882359F08A
:104660008091830582FB222720F991E0922790FB1D
:1046700082F98093830586EE0E949322882359F065
:104680008091830583FB222720F991E0922790FBFC
:1046900083F98093830583EE0E949322882359F047
:1046A0008091830584FB222720F991E0922790FBDB
:1046B00084F98093830585E30E949322882359F02F
:1046C0008091830585FB222720F991E0922790FBBA
:1046D00085F98093830581E30E949322882359F012
:1046E0008091830586FB222720F991E0922790FB99
:1046F00086F98093830581E10E949322882359F0F3
:104700008091830587FB222720F991E0922790FB77
:1047100087F980938305809183050E94732087E247
:104720000E949322C82F8EE10E9493228111C260C1
:104730008FE10E9493228111C46080E20E94932243
:104740008111C86081E20E9493228111C06182E2DE
:104750000E9493228111C06283E20E949322811100
:10476000C06484E20E949322882311F0C06802C0D2
:10477000CC2329F08C2F0E946A206C2F03C00E944A
:104780006620682F70E080E090E0CF910C94921D3D
:10479000CF9108950F931F938B3109F471C0A0F549
:1047A0008E3009F480C0C0F4873009F45BC068F42F
:1047B000863009F0ABC080914205817F8E7F809367
:1047C000420581E080934405A2C0883009F49CC072
:1047D0008B3009F499C09AC0813109F46EC068F435
:1047E000803109F093C08091420583FB222720F994
:1047F00091E0922790FB83F94CC0863109F484C084
:10480000893109F481C082C0853309F475C068F428
:10481000873209F471C028F48E3108F477C08D51C5
:104820005BC0893209F468C071C0833438F48A33BC
:1048300008F051C0883309F467C068C0833409F4B4
:104840005BC0883409F062C00E94BA190FEF13ED03
:1048500020E3015010402040E1F700C000000E941A
:10486000312252C080914205982F9095917090FB13
:1048700080F980934205911147C0897F877F10C0DE
:104880008091420581FB222720F991E0922790FB3D
:1048900081F9809342059923B9F1809142058160A5
:1048A0008093420531C08091420582FB222720F986
:1048B00091E0922790FB82F9ECCF0E94BA19809187
:1048C000830587FB222720F991E0922790FB87F947
:1048D0008093830519C0895341E050E060E070E0A7
:1048E0008A019B0104C0000F111F221F331F8A95EC
:1048F000D2F7C901B80104C061E070E080E090E047
:104900000E94921D0E94BA1981E001C080E01F91AF
:104910000F91089580E0089580E00895CF93C82F07
:1049200080914405882319F0813049F031C0E0912D
:104930001E01F0911F018081823261F507C0E09174
:104940001E01F0911F018081823261F48C2F0E9440
:104950008A24811104C08C2F0E94CA2317C081E0D1
:1049600090E014C08C2F0E948C2481110EC0C431A1
:1049700049F018F4CB3049F00FC0C93219F0C833F0
:1049800021F00AC01092440507C081E0817006C082
:104990001092440580E002C080E0F8CFCF910895E6
:1049A00080916505089508950F931F93CF93DF932A
:1049B00000D01F92CDB7DEB78C010E941C27823039
:1049C00011F0843021F583E089831B830A8382E020
:1049D0008093E9008FEF9091E800815095FD06C02B
:1049E00095ED9A95F1F700008111F5CF8091E800DF
:1049F00085FF0DC040E050E063E070E0CE0101961D
:104A00000E9439278091E8008E778093E8000F900C
:104A10000F900F90DF91CF911F910F910895CF9339
:104A2000DF9300D01F92CDB7DEB7209189052430E7
:104A300029F522E02983805891099B838A8320935A
:104A4000E9008FEF9091E800815095FD06C095ED4B
:104A50009A95F1F700008111F5CF8091E80085FF6C
:104A60000DC040E050E063E070E0CE0101960E948E
:104A700039278091E8008E778093E8000F900F909F
:104A80000F90DF91CF910895CF93DF93EC010E94B7
:104A90001C27823019F0843009F047C080912A0128
:104AA0008823E1F08091830587FF18C083E080931D
:104AB000E9008FEF9091E800815095FD06C095E1E7
:104AC0009A95F1F700008111F5CF8091E80085FFFC
:104AD0002CC040E050E060E270E017C081E08093BD
:104AE000E9008FEF9091E800815095FD06C095EDAB
:104AF0009A95F1F700008111F5CF8091E80085FFCC
:104B000014C040E050E068E070E0CE010E94392718
:104B10008091E8008E778093E80080E2FE01A5E4B2
:104B2000B5E001900D928A95E1F7DF91CF9108955C
:104B300080918805811109C00E94CE280E942B29EE
:104B40008091E20084608093E200089510928805CD
:104B50000895089508950C94972142E061EC81E056
:104B60000E94482842E061EC82E00E94482842E22C
:104B700061EC83E00C94482880918B05833009F424
:104B800055C030F4813071F0823009F48EC0089540
:104B90008A3009F47AC08B3009F460C0893009F09A
:104BA0009CC020C080918A05813A09F096C080910E
:104BB000E800877F8093E80080918E0590918F05B3
:104BC000892B21F460E285E495E003C060E080E099
:104BD00090E070E00E9484278091E8008B778093BA
:104BE000E800089580918A05813209F076C08091AD
:104BF0008E0590918F05009719F0029709F06DC00E
:104C00008091E800877F8093E8008091E80082FD32
:104C100005C0809189058111F8CF5FC08091F100B6
:104C2000809365058091E8008B7753C080918A0559
:104C3000813A09F052C080918E0590918F05892BA1
:104C400009F04BC08091E800877F8093E800809155
:104C5000E80080FFFCCF80912A0136C080918A0550
:104C60008132D9F580918E0590918F05892BA9F518
:104C70008091E800877F8093E8000E947D288091E2
:104C80008C0580932A010C94BA1980918A0581328F
:104C900021F58091E800877F8093E8000E947D28BD
:104CA00080918D0580936605089580918A05813AEB
:104CB000A1F48091E800877F8093E8008091E8006C
:104CC00080FFFCCF809166058093F1008091E80021
:104CD0008E778093E8000C947D28089584B7877FB1
:104CE00084BF0FB6F894A895809160008861809386
:104CF0006000109260000FBE80E880936100109207
:104D000061000E94CF140E94CE280E942B2980911E
:104D1000E20084608093E20078940E94BA2B0E94A3
:104D2000D31480E291E00E94861480918905853039
:104D300069F40E944921809187058823B1F30E947C
:104D40007F21882391F30E942327EFCF0E94E11453
:104D50000E941A13EACF0C94AD26292F3327233053
:104D60003105C9F064F42130310581F0223031057C
:104D700009F049C084E590E02EEB36E048C02132CE
:104D8000310521F12232310571F13DC082E190E01F
:104D900022E137E03CC099278130910571F02CF475
:104DA000892B89F5EAEBF6E00DC08230910541F0E0
:104DB000039749F5EAE9F6E005C0ECEAF6E002C03F
:104DC000E0EAF6E0849190E09F0121C06330710534
:104DD000D0F4660F771FFB01E35BFE4F208131812A
:104DE00089E090E014C06330710568F4FB01EE0FB8
:104DF000FF1FE95BFE4F20813181FB01EC5BFE4F21
:104E0000808190E004C080E090E020E030E0FA0192
:104E10003183208308950895CF93C82F0E940B27D4
:104E2000C0936705CF91089580918905843011F072
:104E300081E0089582E0089580916705811102C0A4
:104E40000C941427089580E189BD82E189BD09B4DD
:104E500000FEFDCF8091D8008F7D8093D800809197
:104E6000E00082608093E0008091E00081FDFCCF53
:104E70000895CF92DF92EF92FF920F931F93CF93FB
:104E8000DF93EC018B016A010E949C28811133C0E1
:104E9000C114D10439F0F60180819181081B190BEE
:104EA000C80FD91FE12CF12C0115110519F18091C2
:104EB000E80085FD16C08091E8008E778093E800B9
:104EC000C114D10449F0F60180819181E80EF91EE8
:104ED000F182E08285E00FC00E949C28882321F3A4
:104EE0000AC089918093F10001501109FFEFEF1A78
:104EF000FF0ADACF80E0DF91CF911F910F91FF90F1
:104F0000EF90DF90CF90089520919005309191051A
:104F10002617370748F06115710539F42091E8002C
:104F20002E772093E80001C0B90140E061157105BA
:104F3000A9F120918905222309F443C0253009F401
:104F400042C02091E80023FD40C02091E80022FDEE
:104F500032C02091E80020FFE9CF4091F30020917A
:104F6000F20030E0342BFC01CF016115710559F0DE
:104F70002830310540F481918093F100615071092E
:104F80002F5F3F4FF1CF41E02830310509F040E07D
:104F90002091E8002E772093E800C8CF4111C9CFB7
:104FA0000AC080918905882361F0853061F0809185
:104FB000E80083FD0AC08091E80082FFF2CF80E024
:104FC000089582E0089583E0089581E00895209196
:104FD0009005309191052617370748F06115710546
:104FE00039F42091E8002E772093E80001C0B90140
:104FF000FC0120E06115710591F1809189058823FC
:1050000009F440C0853009F43FC08091E80083FD79
:105010003DC08091E80082FD2FC08091E80080FFB4
:10502000E9CF2091F3008091F20090E0922B61157E
:10503000710559F08830910540F424912093F100D6
:105040003196615071090196F2CF21E0089709F07D
:1050500020E08091E8008E778093E800CBCF21118B
:10506000CCCF0AC080918905882361F0853061F03A
:105070008091E80083FD0AC08091E80082FFF2CFB2
:1050800080E0089582E0089583E0089581E0089526
:10509000982F973058F59093E900981739F0709150
:1050A000EC002091ED005091F00003C0242F762FEA
:1050B00050E021FF19C03091EB003E7F3093EB00B0
:1050C0003091ED003D7F3093ED003091EB00316089
:1050D0003093EB007093EC002093ED005093F000C0
:1050E0002091EE0027FF07C09F5FD3CF8F70809382
:1050F000E90081E0089580E0089580918A0587FFA6
:1051000011C08091E80082FD05C080918905811160
:10511000F8CF11C08091E8008B770BC08091890592
:10512000882349F08091E80080FFF8CF8091E80063
:105130008E778093E80008952091E4003091E50097
:1051400095E64091EC00842F817040FF22C0809151
:10515000E80080FD1CC080918905882391F085308E
:1051600091F08091EB0085FD10C04091E4005091DA
:10517000E5004217530729F39A01915011F784E093
:10518000089582E0089583E0089581E0089580E025
:1051900008954091E80042FFDECF08950E943C2927
:1051A0000E944429E0EEF0E0808181608083E8ED98
:1051B000F0E080818F77808319BCA7EDB0E08C91FF
:1051C0008E7F8C9380818F7E8083109288050895D6
:1051D0000F931F93CF93DF930E943C290E94442991
:1051E000C8EDD0E088818F77888388818068888344
:1051F00088818F7D888319BC10928905109285055E
:10520000109287051092860500EE10E0F80180816B
:105210008B7F808388818160888342E060E080E0CA
:105220000E944828E1EEF0E080818E7F8083E2EEEC
:10523000F0E0808181608083808188608083F801D4
:1052400080818E7F8083888180618883DF91CF9188
:105250001F910F910895E8EDF0E080818F7E8083AB
:10526000E7EDF0E080818160808384E082BF81E0AF
:10527000809388050C94E828E8EDF0E080818E7F2B
:1052800080831092E20008951092DA001092E100FB
:1052900008951F920F920FB60F9211242F933F93F0
:1052A0004F935F936F937F938F939F93AF93BF932E
:1052B000EF93FF938091E10082FF0BC08091E200A9
:1052C00082FF07C08091E1008B7F8093E1000E9404
:1052D000B92B8091DA0080FF1FC08091D80080FF39
:1052E0001BC08091DA008E7F8093DA008091D90014
:1052F00080FF0DC080E189BD82E189BD09B400FE57
:10530000FDCF81E0809389050E94982505C019BCD6
:10531000109289050E94A6258091E10080FF19C0A6
:105320008091E20080FF15C08091E2008E7F809323
:10533000E2008091E20080618093E2008091D800D9
:1053400080628093D80019BC85E0809389050E9413
:10535000AA258091E10084FF30C08091E20084FFA3
:105360002CC080E189BD82E189BD09B400FEFDCF7A
:105370008091D8008F7D8093D8008091E1008F7E4E
:105380008093E1008091E2008F7E8093E200809123
:10539000E20081608093E20080918505882311F00E
:1053A00084E007C08091E30087FD02C081E001C076
:1053B00083E0809389050E94AB258091E10083FF03
:1053C00029C08091E20083FF25C08091E100877FA2
:1053D0008093E10082E08093890510928505809199
:1053E000E1008E7F8093E1008091E2008E7F8093C8
:1053F000E2008091E20080618093E20042E060E0A0
:1054000080E00E9448288091F00088608093F0003E
:105410000E94A925FF91EF91BF91AF919F918F912C
:105420007F916F915F914F913F912F910F900FBEA0
:105430000F901F9018951F920F920FB60F92112484
:105440002F933F934F935F936F937F938F939F938C
:10545000AF93BF93CF93DF93EF93FF93C091E90096
:10546000CF708091EC00D82FD17080FDD0E81092E1
:10547000E9008091F000877F8093F00078940E948B
:105480005F2A1092E9008091F00088608093F0001C
:10549000CD2BCF70C093E900FF91EF91DF91CF91B9
:1054A000BF91AF919F918F917F916F915F914F913C
:1054B0003F912F910F900FBE0F901F9018951F9343
:1054C000CF93DF93CDB7DEB7AA970FB6F894DEBFC0
:1054D0000FBECDBFEAE8F5E088E08E0F9091F100B5
:1054E00091938E13FBCF0E94BC258091E80083FF2F
:1054F00028C180918A0590918B05492F50E04A3050
:10550000510508F01EC1FA01E556FF4F0C94462FD5
:10551000803821F0823809F014C108C080918605D6
:1055200090918705992389F082600FC080918E0544
:105530008F70873008F005C18093E9008091EB00FF
:1055400085FB882780F91092E9009091E800977F09
:105550009093E8008093F1001092F100D0C0282FC2
:105560002D7F09F0EEC0882319F0823061F0E9C088
:1055700080918C05813009F0E4C0933009F080E01F
:10558000809387052EC080918C0581112AC080915F
:105590008E058F702FEF280F263008F0D2C0809331
:1055A000E9002091EB0020FF1CC0933021F4809192
:1055B000EB00806214C09091EB0090619093EB003F
:1055C00021E030E0A90102C0440F551F8A95E2F79F
:1055D0004093EA001092EA008091EB00886080938B
:1055E000EB001092E9008091E800877F8093E8004B
:1055F0000E947D28A6C08111A4C010918C051F7740
:105600008091E3008078812B8093E3008091E80013
:10561000877F8093E8000E947D288091E80080FFCA
:10562000FCCF8091E30080688093E300111102C0F9
:1056300082E001C083E08093890583C08058823076
:1056400008F07FC080918C0590918D058C3D53E0D2
:10565000950779F583E08A838AE289834FB7F894C6
:10566000DE01139620E03EE051E2E32FF0E050939C
:105670005700E49120FF03C0E295EF703F5FEF70A9
:105680008E2F90E0EA3010F0C79601C0C0968D933F
:105690009D932F5F243149F74FBF8091E800877FAA
:1056A0008093E8006AE270E0CE0101960E948427B0
:1056B00015C060918E0570918F05AE014F5F5F4FF1
:1056C0000E94AB26BC01892BE1F19091E800977F05
:1056D0009093E80089819A810E94E7278091E800F1
:1056E0008B778093E8002DC0803859F58091E800D1
:1056F000877F8093E800809185058093F1008091F9
:10570000E8008E7773CF81111CC090918C05923088
:10571000C0F48091E800877F8093E800909385052E
:105720000E947D2880918505811106C08091E3004B
:1057300087FD02C081E001C084E0809389050E945A
:10574000AD258091E80083FF0AC08091E800877F43
:105750008093E8008091EB0080628093EB00AA9632
:105760000FB6F894DEBF0FBECDBFDF91CF911F9172
:1057700008950895CF93809189058823A1F0C09161
:10578000E900CF709091EC00892F817090FD80E846
:10579000C82B1092E9008091E80083FD0E945F2AE7
:1057A000CF70C093E900CF9108955058BB27AA2726
:1057B0000E94ED2B0C94982D0E948A2D38F00E94A7
:1057C000912D20F039F49F3F19F426F40C94602DAC
:1057D0000EF4E095E7FB0C945A2DE92F0E94A92DB9
:1057E00058F3BA17620773078407950720F079F416
:1057F000A6F50C94CB2D0EF4E0950B2EBA2FA02D10
:105800000B01B90190010C01CA01A0011124FF276D
:10581000591B99F0593F50F4503E68F11A16F04068
:10582000A22F232F342F4427585FF3CF4695379567
:105830002795A795F0405395C9F77EF41F16BA0B2C
:10584000620B730B840BBAF09150A1F0FF0FBB1FDA
:10585000661F771F881FC2F70EC0BA0F621F731F23
:10586000841F48F4879577956795B795F7959E3F80
:1058700008F0B0CF9395880F08F09927EE0F979511
:10588000879508950E94562C0C94982D0E94912D76
:1058900058F00E948A2D40F029F45F3F29F00C94C3
:1058A0005A2D51110C94CC2D0C94602D0E94A92DD1
:1058B00068F39923B1F3552391F3951B550BBB273F
:1058C000AA2762177307840738F09F5F5F4F220F84
:1058D000331F441FAA1FA9F335D00E2E3AF0E0E87B
:1058E00032D091505040E695001CCAF72BD0FE2FC5
:1058F00029D0660F771F881FBB1F26173707480759
:10590000AB07B0E809F0BB0B802DBF01FF27935810
:105910005F4F3AF09E3F510578F00C945A2D0C944D
:10592000CC2D5F3FE4F3983ED4F386957795679549
:10593000B795F7959F5FC9F7880F911D9695879545
:1059400097F90895E1E0660F771F881FBB1F621764
:1059500073078407BA0720F0621B730B840BBA0B22
:10596000EE1F88F7E095089529F416F00C945A2D4F
:105970000C94CB2D0C94602D0E94B12DA8F3963879
:10598000A0F707F80F92E8942BE33AEA48EB5FE7B9
:105990000E945E2E0F920F920F924DB75EB70F923C
:1059A0000E94142EEAE4F1E00E94632D4F915F9172
:1059B000EF91FF91E595EE1FFF1F49F0FE57E0685C
:1059C0004427EE0F441FFA95E1F74195550B0E94CD
:1059D000DE2D0F9007FE0C94D22D08950E94B12D5C
:1059E00088F09F5798F0B92F9927B751B0F0E1F0A0
:1059F000660F771F881F991F1AF0BA95C9F714C050
:105A0000B13091F00E94CB2DB1E008950C94CB2DD4
:105A1000672F782F8827B85F39F0B93FCCF3869588
:105A200077956795B395D9F73EF4909580957095E5
:105A300061957F4F8F4F9F4F0895E89409C097FB62
:105A40003EF490958095709561957F4F8F4F9F4F55
:105A50009923A9F0F92F96E9BB279395F695879599
:105A600077956795B795F111F8CFFAF4BB0F11F45C
:105A700060FF1BC06F5F7F4F8F4F9F4F16C0882303
:105A800011F096E911C0772321F09EE8872F762F39
:105A900005C0662371F096E8862F70E060E02AF07A
:105AA0009A95660F771F881FDAF7880F9695879566
:105AB00097F9089597F99F6780E870E060E008958E
:105AC0009FEF80EC0895DF93CF931F930F93FF9286
:105AD000EF92DF927B018C01689406C0DA2EEF0111
